:400000000080002011000000ED0B0000ED0B000080B500AF024A034B1B68136000F012FEBC760040FA46004010B5054C237833B9044B13B10448AFF300800123237010BD17
:40004000B881FF1F0000000010560000084B10B51BB108490848AFF300800848036803B910BD074B002BFBD0BDE81040184700BF00000000BC81FF1F10560000C880FF1F56
:400080000000000080B500AF62B600F013F80A2001F048FB00F016F800F014F800F048FB00F028F900F004FB4FF47A7001F03AFBF2E700BF80B500AF00F0BEFE01F05CF9FD
:4000C00000BF80BD90B583B000AF0023FB7100F0B3FE01F051F9892000F08EFB03469BB21B029CB2882000F087FB03469BB223449AB27F4B1A818B2000F07EFB03469BB2DD
:400100001B029CB28A2000F077FB03469BB223449BB21AB2764B5A818D2000F06DFB03469BB21B029CB28C2000F066FB03469BB223449BB21AB26E4B9A818F2000F05CFBB3
:4001400003469BB21B029CB28E2000F055FB03469BB223449AB2664BDA81912000F04CFB03469BB21B029CB2902000F045FB03469BB223449BB21AB25D4B1A82932000F075
:400180003BFB03469BB21B029CB2922000F034FB03469BB223449BB21AB2554B5A82952000F02AFB03469BB21B029CB2942000F023FB03469BB223449BB21AB24C4B9A824F
:4001C000972000F019FB03469BB21B029CB2962000F012FB03469BB223449BB21AB2444BDA82992000F008FB03469BB21B029CB2982000F001FB03469BB223449BB21AB228
:400200003B4B1A839B2000F0F7FA03469BB21B029CB29A2000F0F0FA03469BB223449BB21AB2334B5A839D2000F0E6FA03469BB21B029CB29C2000F0DFFA03469BB22344E9
:400240009BB21AB22A4B9A839F2000F0D5FA03469BB21B029CB29E2000F0CEFA03469BB223449BB21AB2224BDA830021F42000F015FB1F4B1B795B01FB711D4B5B799B002C
:400280005BB203F01C035AB297F9073013435BB2FB71FB791946F52000F000FB144B9B795B01FB71124BDB799B005BB203F01C035AB297F9073013435BB2FB710C4BDB78B8
:4002C0005BB203F003035AB297F9073013435BB2FB71FB791946F42000F0E0FAD02000F08BFA0346BB71BB7918460C37BD4690BDCC80FF1F2DE9B04FA2B000AFF72000F01F
:400300007BFA03461C03F82000F076FA03461B011C43F92000F070FA03461B09DBB203F00F032343C7F88430644B1B6A4FEAE374B3F5FA3344F1FF34C7E91E34FA6FBB6FC3
:4003400003FB02F1FA6FBB6F03FB02F3CC18BA6FBB6FA2FB030163181946584BB3F918301BB24FEAE37403FB01F500FB04F22A44A0FB033422441446C7E91C34C7E91C347B
:400380004E4BB3F916301BB24FEAE374BA6F04FB02F1FA6F03FB02F21144BA6FA2FB03340A1914464FEA444949EAD3394FEA4348D7E91C3413EB080344EB0904C7E91C34F2
:4003C0003E4BB3F914301BB24FEAE374DB00FB600023BB60D7E91C34D7E90212C91842EB04020B461446C7E91C34FA6FBB6F03FB02F1FA6FBB6F03FB02F3CC18BA6FBB6FCF
:40040000A2FB0301631819462C4BB3F912301BB24FEAE37403FB01F500FB04F22A44A0FB0334224414461A0A3A663A6E42EA04623A6623127B66214BB3F910301BB24FEA88
:40044000E374BA6F04FB02F1FA6F03FB02F21144BA6FA2FB03340A1914464FEA043B4BEA135B4FEA033AD7E9183413EB0A0344EB0B04C7E91E34D7E91E34191C44F5004236
:400480000E4BDB899BB24FF0000403FB02F501FB04F02844A1FB03340219144662103A60E3177B60D7E90034C7E91E34D7E91E34234305D14FF00003F3E000BFCC80FF1FF3
:4004C000D7F88430C3F580134FEAE374C7E91A34D7E91A34E207FA65FA6D42EA5302FA65DB07BB65D7E91C34D7E91612C91A62EB04020B461446DB1844EB04045B1844EB5C
:400500000204A0017863786B40EA9360786398013863D7E90C8918EB030849EB040943464C46A000F862F86A40EA9370F8629B00BB62D7E90A345B1844EB0204A0007862B0
:40054000786A40EA937078629B003B62D7E9083413EB010844EB020940464946D7E91E2303F04EF903460C46C7E91A344F4BB3F91E3018B24FEAE071D7E91A345A0B3A653A
:400580003A6D42EAC4423A6563137B65D7E91445234603FB01F22B4600FB03F31A442346A0FB033422441446D7E91A12480BB864B86C40EAC240B8645213FA64D7E912895A
:4005C000424602FB04F14A4603FB02F20A444146A3FB0134224414465A0EBA61BA6942EAC412BA616316FB61D7E90634C7E91E342E4BB3F91C301BB24FEAE374BA6E04FB0E
:4006000002F1FA6E03FB02F20A44B96EA1FB033422441446DA0C3A613A6942EA44323A61E3147B61D7E90434C7E91C34D7E91A12D7E91E34C91842EB0402D7E91C345B18A4
:4006400044EB02041A0A3A643A6C42EA04623A6423127B64154BB3F91A301BB24FEAE3742201FA63FA6B42EA1372FA631B01BB63D7E91034D7E90E125B1844EB0204C7E97D
:400680001A34D7E91A0102F02DFF03464FF08741184603F019F803461A46044B9A62034B9B6A18468837BD46BDE8B08FCC80FF1F90B583B000AF4FF000037B60FFF71AFE3A
:4006C00003461949184602F0FFFF0346184602F0E5FA11A3D3E9002301F0A2F84FF00002124B02F07BF903460C46184621460CA3D3E9002302F026FB03460C461846214606
:4007000002F0D0FD03467B607B6818460C37BD4690BD00BFAFF30080C5C551B9895AC83F00000060C662E6C080E6C5470000F03F90B589B000AFFA2000F05EF803461C03DF
:40074000FB2000F059F803461B011C43FC2000F053F803461B09DBB203F00F032343FB61FB69DA10224B1B895B00D31A204AB2F90A2002FB03F3DB124FEAE374C7E9043403
:40078000FB691B111A4A12899B1AFA69121118490989521A02FB03F31B13154AB2F90C2002FB03F39B134FEAE374C7E902343A69BB6813441A460E4B1A620D4B1A6A13461B
:4007C0009B00134480331B12184602F075FE03467B600849786802F077FF03467B60044A7B685362024B5B6A18462437BD4690BDCC80FF1F0000C84280B584B000AF0346AD
:40080000FB7101237B73244B1B78002B02D0012B3CD03CE000F014FE00F05AFF1E4B5878F91D0023012200F01FFE0023FB8109E000F026FF034603F00203002B07D1FB8995
:400840000133FB81FB89B3F5967FF1D300E000BF114B58787A7B07F10C01002300F088FE0023FB8109E000F00BFF034603F00103002B07D1FB890133FB81FB89B3F5967F2B
:40088000F1D300E000BF00F077FD00E000BF3B7B18461037BD4680BDCC80FF1F80B584B000AF03460A46FB711346BB71FB793B73BB797B73164B1B78002B02D0012B22D0D8
:4008C00022E000F0BDFD00F003FF114B587807F10C010023022200F0C7FD0023FB8109E000F0CEFE034603F00203002B07D1FB890133FB81FB89B3F5967FF1D300E000BFCE
:4009000000F03AFD00E000BF00BF1037BD4680BDCC80FF1F80B582B000AF786039603A680021786803F06BF900BF0837BD4680BD80B584B000AFF860B9607A607A68B9681C
:40094000F86803F051F900BF1037BD4680BD00BF80B483B000AF0346FB71FEE780B487B000AF7860396000233B6100237B6127E07B699B007A6813441B68BB60BB68FB73EE
:40098000BB6823F0FF03BB6014E03B695B003A6813441B781A46BB68134419463B695B003A6813445B780B703B6901333B61FB7B013BFB73FB7B002BE7D17B6901337B6105
:4009C0007B69112BD4D900BF1C37BD4680BC704780B582B000AF294B02221A704FF0402308221A70264B03221A70264B264A1278D2B21A70254B08221A80254B41F25122B1
:400A00001A800023FB7019237B6014E0FB785B00DAB2204B1B78DBB203F00103DBB21343DBB203F00303FB704FF4F07000F0E8FE7B68013B7B607B68002B02D0FB78032BDF
:400A4000E4D17B68002B02D10320FFF781FF124B4FF480721A80104B07221A700F4B00221A700F4B48221A700B4B00221A700D4B02221A7000BF0837BD4680BD00430040F0
:400A800000420040A1460040080100492242004020420040254200400440004006400040084000400140004080B483B000AF0B4B1B78FB710A4AFB7903F00703DBB21370FB
:400AC000084AFB791B09DBB21370074B44221A7000BF0C37BD4680BC704700BFCF0100496E5800406F5800407658004080B582B000AF72B62F4A2F4B1B78DBB243F0040344
:400B0000DBB213700023FB7113E0FA7913465B0013445B00284A13443B603B681A683B689B889BB219461046FFF7F4FEFB790133FB71FB79082BE8D920494FF09040FFF727
:400B40000DFF1F4A1E4B1B78DBB243F00203DBB213701C4A1B4B1B78DBB243F00203DBB213700A2218491948FFF7E2FE082218491848FFF7DDFE184A174B1B78DBB243F064
:400B80000803DBB21370154B61221A70FFF720FF124B81221A70124B01221A70FFF784FF0E2210491048FFF7C3FE00BF0837BD4680BD00BFE8460040205600004800004882
:400BC0000350014013500140BC00004800510040C800004812510040224300400048004004000840A0430040B043004080B400AFFEE700BF80B584B000AF78600F4B1A6853
:400C00007B6813441A460E4BD31A802B09DC0B4B1B68FB60094B1A687B681344074A136007E002F0B5FF02460C2313604FF0FF33FB60FB6818461037BD4680BDF880FF1F1B
:400C4000F881FF1F80B586B000AF224B7B61224B3B61204B7B6135E03B691B68FB603B695B68BB603B699B683B6000237B600CE0FB681A68BB681A60BB680433BB60FB688B
:400C80000433FB607B6804337B607A683B689A42EED13B69DB683B6000237B6008E0BB6800221A60BB680433BB607B6804337B607A683B689A42F2D13B6910333B617B6971
:400CC000013B7B617B69002BC6D102F067FFFFF7D9F9FEE701000000C457000080B582B000AF184B184A1A60184A184B1B6843F40073136000237B600FE07B68032B04D881
:400D0000134A7B6852F8233000E0124B12497A6841F822307B6801337B607B682F2BECD90E4B1B78DAB20E4B1A700E4B0A4A1A60FFF7DCFE0C4B00221A6000BF0837BD4697
:400D400080BD00BF0CED00E00004FA0514ED00E000000000ED0B00000080FF1FBC760040C480FF1F08ED00E0C080FF1F80B500AF144B02221A70144B81221A70134B082218
:400D80001A70134B0F221A70124B00221A70124B4FF400421A6007210F2000F00DFD0F490F2000F0E1FC0E4B10221A700D4B00221A700D4B00221A700C4B00221A7000BFA7
:400DC00080BD00BFD6490040C8490040CA490040DB490040DC49004080E100E0790F0000E081FF1FE681FF1FEE81FF1FE481FF1F80B582B000AF00F00BFD0346FB710C4A35
:400E00000B4B1B78DBB243F00403DBB21370094A084B1B78DBB243F00403DBB21370FB79184600F0F9FC00BF0837BD4680BD00BFA5430040B543004080B500AF084B1B7804
:400E4000002B04D1FFF792FF054B01221A70FFF7CFFF044B4FF400421A6000BF80BD00BFD481FF1F00E100E080B582B000AF384B4FF400421A60374B1B78DAB2364BDA70E9
:400E8000364B1B78DAB2344B1A71354B1B78DAB2314B5A71324B1B78DBB29BB21B029AB22E4B1B78DBB29BB213439BB20133FB802C4A2C4B1B78DBB223F00103DBB21370E3
:400EC000FB88184600F09CFC00F0A2FC03467B71254A254B1B78DBB223F00403DBB21370224A224B1B78DBB223F00403DBB213707B79184600F090FC1A4A1A4B1B78DBB2C3
:400F000043F00203DBB21370124B134AD2781A70104B114AD2781A70104B0F4A12791A700F4B0D4A52791A700E4A0E4B1B78DBB223F01003DBB213700D4B4FF400421A6024
:400F40000C4B10221A7000BF0837BD4680BD00BF80E100E0CA490040FC80FF1FDB490040DC490040D6490040A5430040B543004080E200E0E081FF1F80B582B000AFA74BE2
:400F80001B78FB71A64B1B78DBB203F04003DBB2002B00F0A981FB7903F00103002B00F080819F4B1B78DBB2453B052B00F2758101A252F823F000BFD10F0000F71000004A
:400FC0009B1200009B120000D10F0000E3110000FB7923F02003FB71FB7903F00A03DBB2082B46D18E4B1B78DBB2452B3AD18D4B1B78DBB2002B0FD08B4A8C4B1B681B782A
:40100000DBB21370854B04221A70894B01221A70834B46221A7044E1864B1B78DBB203F00203002B0FD0844B1B78DBB243F00A03DAB2814B1A707A4B60221A707F4B4FF4D8
:4010400000421A602DE17E4A7D4B1B78DBB243F01003DBB213707B4B10221A706F4B04221A701EE16D4B00221A706D4B4A221A7017E1FB7903F00A03DBB20A2B37D16E4BB4
:401080001B78DBB263F05F03DAB26B4B1A70694B1B78DBB203F00203002B19D0604B1B78DBB203F00803002B01D0092300E00A23DAB2614B1B78DBB21343DAB25E4B1A7044
:4010C000574B60221A705D4B4FF400421A60E8E05B4A5B4B1B78DBB243F01003DBB21370584B10221A704D4B04221A70D9E0002000F00CFBD5E0FB7903F00203002B42D13C
:401100004B4B1B78DAB2474B1B78DBB29A4214D2454A464B1B6846490978C9B20B441B78DBB213703D4B04221A70414B1B78DBB20133DAB23E4B1A70B3E03E4B1B78DBB273
:4011400003F00203002B0FD03B4B1B78DBB243F00A03DAB2384B1A70314B60221A70374B4FF400421A609CE0354A354B1B78DBB243F01003DBB21370324B10221A70274B49
:4011800004221A708DE02B4B1B78DBB203F00203002B0FD0284B1B78DBB263F06503DAB2254B1A701E4B60221A70244B4FF400421A6076E0224A224B1B78DBB243F010032E
:4011C000DBB213701F4B10221A70144B04221A70194B1B78DBB263F06F03DAB2164B1A705FE0194B1B68194A1278D2B213440E4A1278D2B21A70154B1B78DBB20133DAB2CC
:40120000124B1A70114B1B78DAB2114B1B78DBB29A421FD2014B10221A7042E0D7490040E081FF1FE581FF1FD8490040F081FF1FE481FF1FEC81FF1FE681FF1F80E100E0B2
:40124000D6490040D9490040E881FF1FEE81FF1FED81FF1F2C4B1B78DBB203F00203002B0FD02A4B1B78DBB243F00903DAB2274B1A70274B60221A70264B4FF400421A602A
:401280000FE0254A244B1B78DBB243F01003DBB21370224B00221A7003E0002000F036FA00BFFB7903F02003002B28D0184B1B78DBB203F00803002B01D0012300E002239D
:4012C000DAB2124B1B78DBB21343DAB20F4B1A70114A114B1B78DBB223F01003DBB213700B4B10221A700AE0094B1B78DBB203F01003DBB2002B02D1054B10221A7000BF46
:401300000837BD4680BD00BFEC81FF1FE681FF1FE081FF1F80E100E0D6490040D749004080B400AF0E4B1B78DAB20E4B9A700E4B1B78DAB20B4B5A700C4B1B78DAB2094BC0
:40134000DA700B4B1B78DAB2064B1A71094B1B78DAB2044B5A7100BFBD4680BC704700BFD6490040FC80FF1FC8490040CA490040DB490040DC49004080B500AF0B4B1B789E
:40138000DBB203F00403002B14BF01230023DBB21A46074B1A70064B1B78002B01D0FFF763FDFFF7BDFF00BF80BD00BFA5430040FC80FF1F80B582B000AF1A4B1B78DBB298
:4013C00003F00403DBB2002B14D000F021FA0346FB71144A134B1B78DBB223F00403DBB21370FB79184600F017FA0F4B0F4A92781A7013E00E4B0D4A52781A700A4B0B4AD6
:4014000092781A700B4B094AD2781A700A4B074A12791A70094B054A52791A7000BF0837BD4680BD31430040D6490040FC80FF1FC8490040CA490040DB490040DC49004090
:4014400080B500AFFFF7B6FF054B1B78002B05D0FFF7CEFC034B4FF400421A6000BF80BDFC80FF1F00E100E080B485B000AF396011461A460346FB710B46BB7113467B71B7
:401480000223FB733B68002B56D02E4B1B78DBB2102B0CD12C4B1B78DBB203F00803002B02D10023FB7315E00123FB7312E0254B1B78DBB2602B0DD10023FB73234B4FF41C
:4014C00000421A60224B1B78DBB223F00803DAB21F4B1A70FB7B002B2ED11A4B45221A701C4B00221A701C4ABB7913701B4A3B6813601B4A7B791370154B1B78DBB223F0F5
:401500000203DAB2124B1A70164AFB795B00DBB213707B7903F00103002B06D00A4B12221A70114B04221A7002E0074B01221A700E4B4FF400421A60FB7B18461437BD468E
:4015400080BC7047E081FF1FD949004080E200E0E681FF1FE481FF1FE581FF1FF081FF1FEC81FF1FD8490040D749004000E100E080B485B000AF396011461A460346FB7110
:401580000B46BB7113467B710223FB733B68002B59D0304B1B78DBB2102B0CD12E4B1B78DBB203F00803002B02D10023FB7315E00123FB7312E0274B1B78DBB2602B0DD192
:4015C0000023FB73254B4FF400421A60244B1B78DBB223F00803DAB2214B1A70FB7B002B31D11C4B49221A701E4B00221A701E4ABB7913701D4A3B6813601D4A7B7913702E
:40160000174B1B78DBB223F00103DAB2144B1A70184AFB795B00DBB243F00103DBB213707B7903F00103002B06D00B4B12221A70114B04221A7002E0074B01221A700F4B50
:401640004FF400421A60FB7B18461437BD4680BC704700BFE081FF1FD949004080E200E0E681FF1FEE81FF1FED81FF1FE881FF1FEC81FF1FD8490040D749004000E100E042
:4016800080B483B000AF0E4B4FF400421A600D4B1B78FB710C4B1B78DBB203F04003DBB2002B03D0FB7943F00403FB71074B4FF400421A60FB7918460C37BD4680BC7047B7
:4016C00080E100E0E681FF1FE081FF1F00E100E080B483B000AF0A4B4FF400421A60094B1B78FB71074B00221A70074B4FF400421A60FB7918460C37BD4680BC704700BF0E
:4017000080E100E0E681FF1F00E100E080B483B000AF0346FB7101BE00BF0C37BD4680BC704700BF80B582B000AF786008E00C4B1B68184600F064F87B68A3F500437B60EE
:401740007B68B3F5004FF2D8064B1B687A6802FB03F3184600F054F800BF0837BD4680BD1081FF1F0881FF1F80B584B000AF03463960FB710F4B1B68FB60FB791F2B02D9B7
:401780000020FFF7C3FFFB7903F01F0310339B00FA6813441B68BB60FB7903F01F0310339B00FA6813443A681A60BB6818461037BD4680BD08ED00E080B582B000AF03461B
:4017C0000A46FB711346BB71BB79072B02D90020FFF79CFFFB791F2B02D90020FFF796FFFB7903F01F0303F1604303F56443BA795201D2B21A7000BF0837BD4680BD00BF22
:401800000230800803D000BF01380046FCD17047EFF3108072B6704780F31088704700BF2DE9F04F8DB006460F4614461D4600F08FF9DFF81093CDE9000199F90080B8F133
:40184000FF3F46D022462B462046294601F014FD834600283DD132463B463046394601F00BFD8246002874D1304639460022002301F0D0FC002833D000220023204629460D
:4018800001F0C8FC8346B8B1A94A012300200021CDF828A0CDE90467CDE90645CDE9080103920293B8F1000F6CD0A24B0022104619460DB0BDE8F08F2046294600F072FF82
:4018C00038B1002200232046294601F0ADFC00286AD1DDE90023104619460DB0BDE8F08FDDE9000100F05EFF804600287DD0DDE900014FF0000A4FF0000B52465B4601F096
:4019000089FC0028E5D03046394600F04BFF0028DFD02046294600F045FF0028D9D099F90030834804210022022BCDE90467CDE90645CDE908AB039002910A9204D002A899
:4019400000F036FF002847D102F022F92223036042E0002200232046294601F05BFC0028B7D0744B724800220121B8F1020FCDF828B0CDE90467CDE90645CDE90823039070
:401980000291A8D002A800F013FF00287ED00A9B43B302F0FDF8DDE908230A990160104619460DB0BDE8F08F614999F900300122CDF828B0CDE90467CDE906450391029277
:4019C000002B68D05C490020022BCDE9080166D102F0DEF8212303600A9B1BB102F0D8F80A9B0360DDE9082375E73046394600F0D9FE00283FF47BAF2046294600F0D2FECF
:401A000000283FF474AFDDE900231046194601F033FC00286FD1464B99F90080039303230A90CDE90467CDE906450293B8F1000F3BD1DFF814B14FF0604A0022002330464E
:401A40003946CDE908AB01F0EFFB00283FF477AF00223A4B2046294601F074F904460D4600F0AEFE02460B462046294601F0D2FB00283DD1324B4FF06042CDE9082399F9DC
:401A80000080B8F1020F7FF45AAF5DE702F080F8212303607BE700230024CDE9083402A800F086FE002897D192E7DFF8A0B04FF0000A0022002330463946CDE908AB01F055
:401AC000B3FB0028DDD000221C4B2046294601F039F904460D4600F073FE02460B462046294601F097FB18B9134B0022CDE9082399F90080C5E70E4A99F900900123CDF8A0
:401B00002880CDE90467CDE9064503920293B9F1000FC0D0002200231046194601F03CFAB9F1020FCDE908013FF452AFB7E700BF585600000000F03F0000F0FF0000E03F51
:401B4000FFFFEFC71481FF1FFFFFEF470000F07F2DE9F04F23F0004858EA020993B03CD0714C21F00046A64283460D460CDD06F1404606F5801656EA0B0038D183466B492F
:401B8000584613B0BDE8F08F9A4696462BD0A045EDDC654CA04578D0002D0F468146CDE9002376DB0024BEF1000F27D15E4B984500F08B805D4B984552D0BAF1804F00F07E
:401BC000C9835B4B9A4519D1002D17DB4846394613B0BDE8F04F00F01DBDCB465846534913B0BDE8F08F0028C1D1B045D1DD514813B0BDE8F04F00F0DDBD00244846394603
:401C000000F0CCFDBBF1000F1CD0ED0F013D54EA050370D0484B984540F3948003F10473984540F30D84454B9E4270DDBAF1000F70DD3BA3D3E900231046194601F082F820
:401C400083469DE726B1394B25F040429A42DCD1BAF1000FC0F2B783002D08DB83468FE7BAF1000FC0F25E84CB46394688E706F1404606F5801656EA040300F08384012CE1
:401C8000ECD101F1004183467AE7BEF1000F83D06DE72B4B98452CDCA3F15473984581DD4FEA2853A3F2FF33142B40F35384C3F134032EFA03F202FA03F39E457FF472AF7F
:401CC00002F00102C2F102046DE706F1404303F5801353EA0B0300F03A83184B9E4240F36783BAF1000F15DBDDE900349B46214646E7022457E74A4648463B46394600F0FA
:401D00006DFE02460B4601F047F9834638E7BAF1000F8EDB4FF0000B594631E7AFF300809C7500883CE4377E0000F07F0000F03F0000E03F5C5600000000E041FFFFEF3F16
:401D4000FFFF3F43B6F5801F4FF0000205DAD04B00F0F8FF0E466FF03402DFF844E33315C6F31306A3F2FF3346F07F57764503EB020A47F4401740F3C983C64B00229E42CA
:401D800040F304840023CDE90823CDE90C23C24B0022CDE906230AF1010AA7F5801700263946DDE90623CDE90A0100F017FEDDE9062380468946DDE90A0100F011FE024642
:401DC0000B460020B44901F0E7F80A4601461346CDE90E1202464946404600F0B3FF8C4683467B1043F0005303F5002399190020CDE904BC06460F464FF0000B61465846A1
:401E000032463B46CDE910BCCDE9020100F09AFF02460B464046494600F0E0FDDDE90623804689463046394600F0D8FD02460B46DDE90A0100F0D2FDDDE9022300F082FFA7
:401E400002460B464046494600F0C8FDDDE90E2300F078FFDDE90478CDE906013A4643463846414600F06EFF77A3D3E9002306460F4600F067FF76A3D3E9002300F0B0FDB2
:401E800032463B4600F05EFF73A3D3E9002300F0A7FD32463B4600F055FF71A3D3E9002300F09EFD32463B4600F04CFF6EA3D3E9002300F095FD32463B4600F043FF6CA3B8
:401EC000D3E9002300F08CFD3246804689463B463046394600F036FF02460B464046494600F030FFDDE9022306460F46DDE9040100F076FDDDE9062300F024FF32463B4660
:401F000000F06EFDDDE902678046894632463B463046394600F016FF0022604BCDE90A0100F05EFD42464B4600F05AFDDDE910BC0F46DDE902015A463B46CDE90EBC5E4661
:401F400000F000FF0022CDE90201544B3046394600F044FDDDE90A2300F040FD02460B464046494600F03AFDDDE9042300F0EAFE324680468946DDE906013B4600F0E2FEED
:401F800002460B464046494600F02AFD8046894602460B46DDE9020100F022FDDDE90EBC35A3D3E900235846CDE906BC5E460F4600F0C8FEDDE90223CDE9040130463946AF
:401FC00000F00CFD02460B464046494600F006FD2BA3D3E9002300F0B5FE2BA3D3E90023804689463046394600F0ACFE02460B464046494600F0F4FCDDE90C2300F0F0FCC7
:4020000080465046894600F037FE06460F46DDE9040142464B4600F0E3FCDDE9082300F0DFFC32463B4600F0DBFCDDE906BC324658463B46DA468B4600F0D0FCDDE90823C3
:4020400030E000BFAFF30080EF4E454A287ECA3F65DBC9934A86CD3F01411DA96074D13F4D268F515555D53FFFAB6FDBB66DDB3F033333333333E33F000000E009C7EE3F4D
:40208000FD033ADC09C7EE3FF5015B14E02F3EBE0000404379B60B000000F03F000008408E98030000F09AFCDDE9042300F096FC02460B464046494600F090FC804689468C
:4020C000DDE90012013C54EA050314BFD64CD74C0023CDE904340B461446CDE9023400230293DDE9024508462B461146224600F075FC52465B4600F025FEDDE900230646A0
:402100000F464046494600F01DFE02460B463046394600F065FC06460F4622462B4650465946CDE9006700F00DFE0B460246804689463046394600F053FCBD4B06469942F3
:402140000D460C4640F30E8101F13F4303F5E003034340F0F081A0A3D3E90023DDE9000100F03EFC424682468B464B463046294600F034FC02460B465046594601F072F8CF
:40218000002840F0D8812F463B154FF48012A3F2FE3342FA03F32344C3F30A52A54EA2F2FF321641C3F3130B0020C2F1140523EA06014BF4801B02460B46002C4BFA05FB9C
:4021C00040464946B8BFCBF1000B00F007FC02460B4680468946DDE9000100F001FC4FEA0B5A00247EA3D3E9002320460D4600F0A9FD424606460F464B462046294600F027
:40220000EDFB02460B46DDE9000100F0E7FB76A3D3E9002300F096FD75A3D3E90023804689462046294600F08DFD02460B464046494600F0D5FB8046894602460B4630461C
:40224000394600F0CDFB32463B4604460D4600F0C5FB02460B464046494600F0BFFB2246804689462B462046294600F06BFD62A3D3E9002306460F4600F064FD60A3D3E959
:40228000002300F0ABFB32463B4600F05BFD5EA3D3E9002300F0A4FB32463B4600F052FD5BA3D3E9002300F099FB32463B4600F049FD59A3D3E9002300F092FB32463B469C
:4022C00000F040FD02460B462046294600F086FB06460F4602460B462046294600F032FD0022CDE900014FF080433046394600F075FB02460B46DDE9000100F04DFE424651
:4023000006460F464B462046294600F01BFD42464B4600F065FB02460B463046394600F05DFB22462B4600F059FB02460B4600203D4900F053FB8A44BAF5801FC0F237812F
:402340005146DDE9042300F0FDFC834618E4F346354915E44A4648463B46394600F0F2FC83460DE4344B21F000479F4240F30181324B0B4403430CD142464B4600F02EFB37
:4023800002460B46DDE9000100F058FF00283FF4FBAE23A3D3E90023DDE9040100F0D2FC1FA3D3E9002300F0CDFC8346FFF7E8BBBAF1000FBFF6AEACDDE900349B4604F1EF
:4023C0000041FFF7DDBB02460B460020164900F0E3FD41E4AFF30080FE822B654715973C00000000432EE63FEF39FAFE422EE63F396CA80C615C20BED0A4BE726937663E79
:40240000F16BD2C541BDBB3E2CDE25AF6A56113F93BDBE166CC1663F3E5555555555C53F59F3F8C21F6EA5010000F03F0000F0BFFFFF8F40FFFF0F00FFCB904000346F3F76
:402440006F4B9E427FF763AC6E4B9E423FF7EEAB00226C4B00F0C2FA5BA3D3E9002306460F4600F06FFC5AA3D3E90023804689463046394600F066FC002282468B46624B57
:402480003046394600F05EFC02460B4652A1D1E9000100F0A3FA32463B4600F053FC02460B460020594900F099FA3246CDE902013B463046394600F045FC02460B46DDE9BC
:4024C000020100F03FFC46A3D3E9002300F03AFC02460B465046594600F080FA02460B4606460F464046494600F07AFA42464B46002082468B4600F071FA02460B46304699
:40250000394600F06BFA80468946D9E500220023CDE90823CDE90C233A4B00220026CDE906233DE44A463B460020364900F034FD8346FFF725BB2CA3D3E90023DDE90401B3
:4025400000F000FC28A3D3E9002300F0FBFB8346FFF716BBBEF1000F7FF44FABC3F1140348FA03F202FA03F3984524D07446FFF721BB264B9F423FF707AEDDE902349A46BA
:402580009B462EE602460B46FFF7B9BB204B4FF48026CDE9062316A3D3E90023CDE9082315A3D3E90023CDE90C23FFF7F9BB5A4600F096F9C5E602F00102C2F10204FFF7E3
:4025C000F9BA00BFAFF30080000000604715F73F44DF5DF80BAE543E555555555555D53FFE822B654715F73F9C7500883CE4377E0000004003B8E23F06D0CF43EBFD4C3EFA
:40260000FEFFEF3F0000F03F0000D03F0000E03F0000F83F2DE9F0415F4E0C46B6460E407645054600F0988000290B46024674DD5FEA215E7FD0AEF2FF3EC3F313031EF05C
:40264000010F43F4801363D100273E4603EBD2710B444FEA6E0E520016204FF4001174189C424FEAD2754FEA420202DC1B1B66180F44013805EB43034FEA5101EFD18446C0
:4026800020244FF0004109E020D003EBD275013C4FEA51012B444FEA420220D09E4201EB0C05F1DA002D05EB010C09DBB0469542A3EB060300D9013B4646521B0844E4E765
:4026C000BCF1000FF2DB06F10108F0E7954217D8002D05EB010C49DB98460023ECE7134310D140087B1003F17F5303F50013FA0703EB0E57394648BF40F00040BDE8F08157
:402700003346C2E7411C35D000F001031844E8E75B0003EBD273520096E721F000460643ECD079BB8E46D30AAEF1150E5205002BF9D0DD0221D4002100E001465B00DC02F6
:4027400001F10100F9D5C0F1200422FA04F42343C1EB0E0E82406EE702460B4600F0F2FA2A46234600F03CF9BDE8F081BCF1000FA9DAB1E701372046B4E720244FF0FF311E
:402780000020E2E702460B4600F028F902460B4600F002FCB2E700BF0000F07F21F00041704700BF41F0004101F58010C00F70470020704700200149704700BF0000F87FC4
:4027C000F0B5C1F30A5EAEF2FF36132E83B002460B460C464FEAD17507462EDC002E49DB3D49314103EA010010432BD049080B4053EA02070CD04FF48023132E24EA010193
:4028000043FA06F444EA01040CBF4FF000470027324B214603EBC505D5E90045384622462B4600F0DDF8CDE90001DDE9000122462B4600F0D3F803B0F0BD332E06DDB6F59A
:40284000806F45D01046194603B0F0BDAEF2134E4FF0FF3121FA0EF10842F3D049080842D6D04FF0804320EA010143FA0EFE4EEA0107CDE721F0004101431946E4D0C3F3BD
:40288000130343EA000CCCF1000343EA0C0C134B640C4FEA1C3C0CF4002C03EBC5036404D3E900674CEA040132463B4600F098F8CDE90001DDE9000132463B4600F08EF857
:4028C000024621F0004141EAC57310461946BBE700F086F8B8E700BFFFFF0F0060560000F8B5C1F30A5604460D460B46174606BB21F00043034325D000222F4B00F022FAF1
:402900002E4A044697420D460B462ADBC1F30A56363E40F2FE723E44964228DC002E12DD23F0FF4323F4E00343EA065520462946F8BD40F2FF729642EBD102460B4600F08D
:402940004FF8F8BDF8BD16F1350F1DDA4CF250339F420CDC14A1D1E9000122462B4600F031F811A3D3E9002300F0ECF9F8BD22460FA1D1E900012B4600F024F80CA3D3E9A0
:40298000002300F0DFF9F8BD23F0FF4323F4E003363643EA0655204629460022084B00F0D1F9F8BDAFF3008059F3F8C21F6EA5019C7500883CE4377E00005043B03CFFFF35
:4029C0000000903C03F0004321F0004242EA0301704700BF81F0004102E000BF83F0004330B54FEA41044FEA430594EA050F08BF90EA020F1FBF54EA000C55EA020C7FEA2D
:402A0000645C7FEA655C00F0E2804FEA5454D4EB5555B8BF6D420CDD2C4480EA020281EA030382EA000083EA010180EA020281EA0303362D88BF30BD11F0004F4FEA0131A6
:402A40004FF4801C4CEA113102D0404261EB410113F0004F4FEA03334CEA133302D0524263EB430394EA050F00F0A780A4F10104D5F1200E0DDB02FA0EFC22FA05F2801816
:402A800041F1000103FA0EF2801843FA05F359410EE0A5F120050EF1200E012A03FA0EFC28BF4CF0020C43FA05F3C01851EBE37101F0004507D54FF0000EDCF1000C7EEB08
:402AC00000006EEB0101B1F5801F1BD3B1F5001F0CD349085FEA30004FEA3C0C04F101044FEA445212F5800F80F09A80BCF1004F08BF5FEA500C50F1000041EB045141EA1B
:402B0000050130BD5FEA4C0C404141EB010111F4801FA4F10104E9D191F0000F04BF01460020B1FA81F308BF2033A3F10B03B3F120020CDA0C3208DD02F1140CC2F10C0222
:402B400001FA0CF021FA02F10CE002F11402D8BFC2F1200C01FA02F120FA0CFCDCBF41EA0C019040E41AA2BF01EB0451294330BD6FEA04041F3C1CDA0C340EDC04F1140450
:402B8000C4F1200220FA04F001FA02F340EA030021FA04F345EA030130BDC4F10C04C4F1200220FA02F001FA04F340EA0300294630BD21FA04F0294630BD94F0000F83F449
:402BC000801306BF81F480110134013D4EE77FEA645C18BF7FEA655C29D094EA050F08BF90EA020F05D054EA000C04BF1946104630BD91EA030F1EBF0021002030BD5FEA63
:402C0000545C05D14000494128BF41F0004130BD14F580043CBF01F5801130BD01F0004545F0FE4141F470014FF0000030BD7FEA645C1ABF194610467FEA655C1CBF0B4679
:402C4000024650EA013406BF52EA033591EA030F41F4002130BD00BF90F0000F04BF0021704730B54FF4806404F132044FF000054FF0000150E700BF90F0000F04BF002187
:402C8000704730B54FF4806404F1320410F0004548BF40424FF000013EE700BF42004FEAE2014FEA31014FEA02701FBF12F07F4393F07F4F81F06051704792F0000F14BF90
:402CC00093F07F4F704730B54FF4607401F0004521F0004120E700BF50EA010208BF704730B54FF000050AE050EA010208BF704730B511F0004502D5404261EB41014FF4A4
:402D0000806404F132045FEA915C3FF4DCAE4FF003025FEADC0C18BF03325FEADC0C18BF033202EBDC02C2F1200300FA03FC20FA02F001FA03FE40EA0E0021FA02F1144493
:402D4000C1E600BF70B54FF0FF0C4CF4E06C1CEA11541DBF1CEA135594EA0C0F95EA0C0F00F0DEF82C4481EA030621EA4C5123EA4C5350EA013518BF52EA033541F480118B
:402D800043F4801338D0A0FB02CE4FF00005E1FB02E506F00042E0FB03E54FF00006E1FB03569CF0000F18BF4EF0010EA4F1FF04B6F5007F64F5407404D25FEA4E0E6D41A3
:402DC00046EB060642EAC62141EA55514FEAC52040EA5E504FEACE2EB4F1FD0C88BFBCF5E06F1ED8BEF1004F08BF5FEA500E50F1000041EB045170BD06F0004646EA0101D3
:402E000040EA020081EA0301B4EB5C04C2BFD4EB0C0541EA045170BD41F480114FF0000E013C00F3AB8014F1360FDEBF002001F0004170BDC4F10004203C35DA0C341BDCCB
:402E400004F11404C4F1200500FA05F320FA04F001FA05F240EA020001F0004221F0004110EBD37021FA04F642EB06015EEA430E08BF20EAD37070BDC4F10C04C4F12005C8
:402E800000FA04F320FA05F001FA04F240EA020001F0004110EBD37041F100015EEA430E08BF20EAD37070BDC4F1200500FA05F24EEA020E20FA04F301FA05F243EA020330
:402EC00021FA04F001F0004121FA04F220EA020000EBD3705EEA430E08BF20EAD37070BD94F0000F0FD101F00046400041EB010111F4801F08BF013CF7D041EA060195F02E
:402F0000000F18BF704703F00046520043EB030313F4801F08BF013DF7D043EA0603704794EA0C0F0CEA135518BF95EA0C0F0CD050EA410618BF52EA4306D1D181EA0301A4
:402F400001F000414FF0000070BD50EA410606BF1046194652EA430619D094EA0C0F02D150EA013613D195EA0C0F05D152EA03361CBF104619460AD181EA030101F0004198
:402F800041F0FE4141F470014FF0000070BD41F0FE4141F4780170BD70B54FF0FF0C4CF4E06C1CEA11541DBF1CEA135594EA0C0F95EA0C0F00F0A7F8A4EB050481EA030EBE
:402FC00052EA03354FEA013100F088804FEA03334FF0805545EA131343EA12634FEA022245EA111545EA10654FEA00260EF000419D4208BF964244F1FD0404F5407402D257
:403000005B084FEA3202B61A65EB03055B084FEA32024FF480104FF4002CB6EB020E75EB030E22BFB61A754640EA0C005B084FEA3202B6EB020E75EB030E22BFB61A754664
:4030400040EA5C005B084FEA3202B6EB020E75EB030E22BFB61A754640EA9C005B084FEA3202B6EB020E75EB030E22BFB61A754640EADC0055EA060E18D04FEA051545EA85
:4030800016754FEA06164FEAC30343EA52734FEAC2025FEA1C1CC0D111F4801F0BD141EA00014FF000004FF0004CB6E711F4801F04BF01430020B4F1FD0C88BFBCF5E06F5D
:4030C0003FF6AFAEB5EB030C04BFB6EB020C5FEA500C50F1000041EB045170BD0EF0004E4EEA113114EB5C04C2BFD4EB0C0541EA045170BD41F480114FF0000E013C90E6A0
:4031000045EA060E8DE60CEA135594EA0C0F08BF95EA0C0F3FF43BAF94EA0C0F0AD150EA01347FF434AF95EA0C0F7FF425AF104619462CE795EA0C0F06D152EA03353FF46A
:40314000FDAE1046194622E750EA410618BF52EA43067FF4C5AE50EA41047FF40DAF52EA43057FF4EBAE12E74FF0FF3C06E000BF4FF0010C02E000BF4FF0010C4DF804CD7E
:403180004FEA410C7FEA6C5C4FEA430C18BF7FEA6C5C1BD001B050EA410C0CBF52EA430C91EA030F02BF90EA020F0020704710F1000F91EA030F58BF994208BF90422CBF8C
:4031C000D8176FEAE37040F0010070474FEA410C7FEA6C5C02D150EA013C07D14FEA430C7FEA6C5CD6D152EA033CD3D05DF8040B704700BF8446104662468C461946634679
:4032000000E000BF01B5FFF7B7FF002848BF10F1000F01BD4DF808EDFFF7F4FF0CBF012000205DF808FB00BF4DF808EDFFF7EAFF34BF012000205DF808FB00BF4DF808EDAC
:40324000FFF7E0FF94BF012000205DF808FB00BF4DF808EDFFF7CEFF94BF012000205DF808FB00BF4DF808EDFFF7C4FF34BF012000205DF808FB00BF4FEA410C7FEA6C5C31
:4032800002D150EA013C0AD14FEA430C7FEA6C5C02D152EA033C02D14FF0000070474FF0010070474FEA4102B2F1E04324BFB3F5001CDCF1FE5C0DD901F0004C4FEAC002F4
:4032C0004CEA5070B2F1004F40EB830008BF20F00100704711F0804F21D113F13872BCBF01F00040704741F480114FEA5252C2F11802C2F1200C10FA0CF320FA02F018BF9B
:4033000040F001004FEAC1234FEAD32303FA0CFC40EA0C0023FA02F34FEA4303CCE77FEA625307D150EA01331EBF4FF0FE4040F44000704701F0004040F0FE4040F40000D5
:40334000704700BF80F0004002E000BF81F0004142001FBF5FEA410392EA030F7FEA226C7FEA236C6AD04FEA1262D2EB1363C1BFD218414048404140B8BF5B42192B88BFFD
:40338000704710F0004F40F4000020F07F4018BF404211F0004F41F4000121F07F4118BF494292EA030F3FD0A2F1010241FA03FC10EB0C00C3F1200301FA03F100F0004385
:4033C00002D5494260EB4000B0F5000F13D3B0F1807F06D340084FEA310102F10102FE2A51D2B1F1004F40EBC25008BF20F0010040EA03007047490040EB000010F4000F68
:40340000A2F10102EDD1B0FA80FCACF1080CB2EB0C0200FA0CF0AABF00EBC25052421843BCBFD0401843704792F0000F81F4000106BF80F400000132013BB5E74FEA410306
:403440007FEA226C18BF7FEA236C21D092EA030F04D092F0000F08BF0846704790EA010F1CBF0020704712F07F4F04D1400028BF40F00040704712F100723CBF00F5000042
:40348000704700F0004343F0FE4040F4000070477FEA226216BF08467FEA23630146420206BF5FEA412390EA010F40F4800070474FF0000304E000BF10F0004348BF404224
:4034C0005FEA000C08BF704743F0964301464FF000001CE050EA010208BF70474FF000030AE000BF50EA010208BF704711F0004302D5404261EB41015FEA010C02BF8446FE
:403500000146002043F0B64308BFA3F18053A3F50003BCFA8CF2083AA3EBC25310DB01FA02FC634400FA02FCC2F12002BCF1004F20FA02F243EB020008BF20F001007047F5
:4035400002F1200201FA02FCC2F1200250EA4C0021FA02F243EB020008BF20EADC7070474FF0FF0C1CEAD0521EBF1CEAD15392EA0C0F93EA0C0F6FD01A4480EA010C4002D1
:4035800018BF5FEA41211ED04FF0006343EA501043EA5111A0FB01310CF00040B1F5000F3EBF490041EAD3715B0040EA010062F17F02FD2A1DD8B3F1004F40EBC25008BFFD
:4035C00020F00100704790F0000F0CF0004C08BF49024CEA502040EA51207F3AC2BFD2F1FF0340EAC250704740F400004FF00003013A5DDC12F1190FDCBF00F00040704750
:40360000C2F10002410021FA02F1C2F1200200FA02FC5FEA310040F1000053EA4C0308BF20EADC70704792F0000F00F0004C02BF400010F4000F013AF9D040EA0C0093F010
:40364000000F01F0004C02BF490011F4000F013BF9D041EA0C018FE70CEAD15392EA0C0F18BF93EA0C0F0AD030F0004C18BF31F0004CD8D180EA010000F00040704790F008
:40368000000F17BF90F0004F084691F0000F91F0004F14D092EA0C0F01D142020FD193EA0C0F03D14B0218BF084608D180EA010000F0004040F0FE4040F40000704740F05C
:4036C000FE4040F4400070474FF0FF0C1CEAD0521EBF1CEAD15392EA0C0F93EA0C0F69D0A2EB030280EA010C49024FEA402037D04FF0805343EA111143EA10130CF000409F
:403700008B4238BF5B0042F17D024FF4000C8B4224BF5B1A40EA0C00B3EB510F24BFA3EB510340EA5C00B3EB910F24BFA3EB910340EA9C00B3EBD10F24BFA3EBD10340EACF
:40374000DC001B0118BF5FEA1C1CE0D1FD2A3FF650AF8B4240EBC25008BF20F0010070470CF0004C4CEA50207F32C2BFD2F1FF0340EAC250704740F400004FF00003013ACB
:4037800037E792F0000F00F0004C02BF400010F4000F013AF9D040EA0C0093F0000F01F0004C02BF490011F4000F013BF9D041EA0C0195E70CEAD15392EA0C0F08D142025C
:4037C0007FF47DAF93EA0C0F7FF470AF084676E793EA0C0F04D14B023FF44CAF08466EE730F0004C18BF31F0004CCAD130F000427FF45CAF31F000437FF43CAF5FE700BFD8
:403800007BB972B90029BEBF00204FF0004106E008BF00281CBF6FF000414FF0FF3000F0B5B9ADF1080C6DE904CE002909DB002B1ADB00F035F8DDF804E0DDE9022304B04B
:403840007047404261EB4101002B1BDB00F028F8DDF804E0DDE9022304B0404261EB4101524263EB43037047524263EB430300F017F8DDF804E0DDE9022304B0404261EBBC
:4038800041017047524263EB430300F009F8DDF804E0DDE9022304B0524263EB430370472DE9F04F8C460C460546099E002B4FD18A4217466BD9B2FA82FEBEF1000F0BD0D7
:4038C000CEF1200520FA05F501FA0EF345EA030C02FA0EF700FA0EF5390CBCFBF1F0BAB201FB10C300FB02F84FEA154C4CEA0344A04509D9E41900F1FF3380F02881A0458F
:4039000040F2258102383C44C8EB0404B4FBF1F301FB134C03FB02F2ACB244EA0C418A4209D9C91903F1FF3480F00F818A4240F20C81023B39448A1A43EA00400021002E25
:4039400063D022FA0EF2002386E80C00BDE8F08F8B4207D9002E56D0002186E811000846BDE8F08FB3FA83F1002940F09380A34202D3824200F2FE80851A64EB03039C46D3
:403980000120002E41D086E82010BDE8F08F12B90127B7FBF2F7B7FA87FEBEF1000F36D1E41B4FEA17481FFA87F90121B4FBF8F308FB134409FB03F24FEA154C4CEA044405
:4039C000A24207D9E41903F1FF3002D2A24200F2D3800346A41AB4FBF8F008FB104809FB00F9ACB244EA0842914507D9D21900F1FF3402D2914500F2BA802046C9EB020261
:403A000040EA03409BE731463046BDE8F08F07FA0EF7CEF1200C24FA0CF34FEA1748B3FBF8FA1FFA87F908FB1A3520FA0CFC04FA0EF40AFB09FB4CEA040C4FEA1C4242EA21
:403A400005439B4500FA0EF50AD9DB190AF1FF3280F08B809B4540F28880AAF1020A3B44CBEB0303B3FBF8F008FB103300FB09F41FFA8CFC4CEA03439C4207D9DB1900F113
:403A8000FF326ED29C426CD902383B441C1B40EA0A418BE7C1F1200E8B4022FA0EFC4CEA030C24FA0EF74FEA1C49B7FBF9FA1FFA8CF309FB1A7720FA0EF88C400AFB03F509
:403AC00048EA04044FEA144848EA0747BD4202FA01F200FA01FB09D917EB0C070AF1FF3041D2BD423FD9AAF1020A67447F1BB7FBF9F509FB157705FB03F3A4B244EA074764
:403B0000BB4208D917EB0C0705F1FF3027D2BB4225D9023D674445EA0A40A0FB0289FF1A4F4545464C4614D329D066B3BBEB050367EB040707FA0EFECB40CF404EEA0303BD
:403B400086E888000021BDE8F08F2346F3E61846DAE6B8EB020569EB0C040138E5E70546D9E7104692E78246C0E7924678E702383A4443E7084604E7023B3C442AE7C34526
:403B8000E7D33C46D1E73146BDE8F08F704700BF014B1868704700BF7881FF1F0E4B70B51E460E4C0025E41AA410A54204D056F8253098470135F8E701F0F2FD084B094CBA
:403BC0001E46E41AA4100025A54204D056F8253098470135F8E770BDAC570000AC570000AC570000B457000010B5431E0A44914204D011F8014B03F8014FF8E710BD034647
:403C00000244934202D003F8011BFAE770472DE9F04788B0149F002B1E461299B8BF03F1004327F02007B6BF1E4600232D23462F1446109DDDF84CA00B7003D0452F03D16B
:403C4000013501E0032300E0022307AA049206AA03928DE828042246334600F0B9FB472F804602D1119BDB0728D5462F08EB050911D198F80030302B0AD1002200232046BD
:403C80003146FFF7C7FA18B9C5F10105CAF80050DAF8003099440022002320463146FFF7B9FA08B9302202E0CDF81C9006E0079B994503D9591C07911A70F8E74046079B47
:403CC000159AC8EB0303136008B0BDE8F087034673B50029B8BF494203F8022BB4BF2D222B22092942701ADD0DF1070216460A2591FBF5F405FB1411092C01F1300102F8E9
:403D0000011D2146F4DC3031541E02F8011CB4421A460AD214F8012B03F8012BF7E71A463024214402F8024B5970101A02B070BD2DE9F04F91B00C46DDF8688016461F463D
:403D4000054601F0DDF803681846099300F0AAFA00230E93D8F800300A90073323F0070303F1080294F81890D4F800B0C8F80020D3E90023C4E91223D4F84CA0D4F84880E9
:403D80002AF000430B934FF0FF32A74B40460B99FFF772FAA0B94FF0FF32A34B40460B99FFF74CFA60B90022002340465146FFF73BFA10B12D2384F843309C4B9C4A0AE0A0
:403DC0004246534640465146FFF756FA002800F09281984B984AB9F1470F8CBF90469846032323612BF0040323604FF0000A3DE0B9F1670F00F08A81B9F1470F00F0868189
:403E000023600193636800210DF13302059002920093424653460691CDF81090CDF80CE02846FFF7F4FE09F0DF03472B804600F08481B9F1650F0D9900F28D8101394A46D6
:403E400004F150000D91FFF742FF0E9A82468318012A236100F37C812268D10700F178819DF8333013B12D2384F84330009733460FAA2146284600F09FF9013002D14FF0CE
:403E8000FF3096E123685A0501D4236965E0B9F1650F40F2D580D4E9120100220023FFF7B9F978B30123654A31462846B8470130E5D00E9B0D9A9A420BDB2368D80708D44A
:403EC00023689B0740F111814FF0000804F1190906E10A9B099A31462846B8470130CED04FF0000804F11A090E9B013B9845E7DA01234A4631462846B8470130BFD008F15F
:403F00000108F1E70D9B002B29DC01234B4A31462846B8470130B2D00D9B23B90E9B13B92368D907CCD50A9B099A31462846B8470130A4D04FF0000904F11A0A0D9B5B42FC
:403F4000994509DA0123524631462846B847013095D009F10109F1E70E9B4246A7E00E9AA36D9A42A8BF1A46002A914606DC4FF0000A29EAE97904F11A0B11E013463146DF
:403F800042462846B8470130F1D178E701235A4631462846B84701303FF471AF0AF1010AA36DC9EB03029245F0DB08EB03090D9A0E9B9A420FDB2368DA070CD40E9B0D9A6C
:403FC0009844C9EB08089B1A9845A8BF9846B8F1000F08DC0FE00A9B099A31462846B8470130EBD14BE743464A4631462846B84701303FF444AF4FF0000928EAE87804F171
:404000001A0A09E00123524631462846B84701303FF435AF09F101090D9A0E9B9B1AC8EB03039945EEDB4BE7FFFFEF7F72560000765600007A5600007E5600008256000074
:404040000E9A012A01DCDB0738D50123424631462846B84701303FF412AF0A9B099A31462846B84701303FF40AAFD4E9120100220023FFF7CFF820B14FF0000804F11A09A1
:404080000EE00E9B08F10102013B19E001234A4631462846B84701303FF4F1AE08F101080E9B013B9845F1DB534604F1500231462846B84701307FF403AFE0E64246012381
:4040C00031462846B8470130EED1D8E601234A4631462846B84701303FF4D1AE08F10108E3680F9A9B1A9845F0DBE0680F9B9842B8BF18465DE062680EA8531C0DF1340E53
:404100004BF480637FF474AE062201E012B90122626075E6002106910DF133018DE80C00236005904246CDF81090CDF80CE0029153462846FFF76BFD80460D9BD81C02DB5C
:40414000626893421DDDA9F102095FFA89F970E60133236184E6B9F1660F14D10029636807DD216113B92268D2071DD501330B4419E013B92268D00701D5023313E0012364
:4041800011E04FF067090D9B0E9A934205DB22682361D10708D5013305E0002BD4BFC3F102030123134423610D9B4FF0000AA36556E611B0BDE8F08F2DE9F04791461F4665
:4041C0000A698B6806469342B8BF1346C9F8003091F843200C46DDF8208012B10133C9F800302368990642BFD9F800300233C9F80030256815F0060510D104F1190A07E00D
:404200000123524639463046C04701301AD00135E368D9F800209B1A9D42F1DB94F843302268003318BF012392060FD5E118302081F843005A1C94F845102244023382F835
:40424000431003E04FF0FF30BDE8F08704F1430239463046C0470130F4D02268D9F80050E36802F00602042A08BF5D1B2269A3680CBF25EAE57500259342C4BF9B1AED18F5
:404280004FF000091A344D4509D00123224639463046C0470130D5D009F10109F3E70020BDE8F087034613F8012B002AFBD1181A013870472DE9F74F03690C6980469C420C
:4042C0007FDC013C01F114074FEA840E00F1140606EB0E0357F82450019356F824300135B3FBF5F507EB0E09C5B34FF0000A3846B446D34650F8043B9AB205FB02A21B0C81
:404300004FEA124A05FB03A392B2C2EB0B0BBCF800204FEA134A5A441FFA83FBDCF800308145CBEB134303EB224392B242EA03424FEA234B4CF8042BDCD256F80E306BB946
:40434000019B043B9E421A4602D3C8F8104005E01268043B002AF8D1013CF3E7404600F0E8FF00282BDB304601354FF0000E57F8042B036891B2C1EB0E0E120C99B27144FF
:40438000C2EB134303EB214389B24FEA234EB94541EA034340F8043BE9D256F8242006EB840362B9043B9E421A4602D3C8F8104005E01268043B002AF8D1013CF3E7284683
:4043C00000E0002003B0BDE8F08F0000000000002DE9F04F456A95B08246219CCDE9022345B9102000F090FDCAF82400456085600560C560DAF82430196859B15A68012301
:4044000093404A608B60504600F0BBFDDAF8243000221A60039BA04A002BBDBF01232360039B0023BCBF23F000430393DDF80C80A8BF236028F000431B0D1B0593421DD165
:4044400042F20F73209A1360029B43B9934A944BC8F31300002814BF1846104600E09048229B002B00F04685C37813B100F1080300E0C31C229A136000F03CBDDDE902454D
:404480000022002320462946FEF7C4FE074658B1209A01231360229B002B00F01E8581481860013800F026BD12AB019313AB009322462B46504600F0B7FFC8F30A56049056
:4044C00056B1C5F3130343F07F51204641F44011A6F2FF3611971DE0139B129E1E4406F23243202B0ADD029A06F21240C3F1400322FA00F008FA03F3184304E0C3F1200033
:40450000029B03FA00F0FEF7A7FB0123A1F1F871013E11930022644BFEF760FA58A3D3E90023FEF70FFC58A3D3E90023FEF758FA044630460D46FEF79FFB55A3D3E90023C4
:40454000FEF700FC02460B4620462946FEF748FA04460D4601F034F800228346002320462946FEF761FE58B15846FEF785FB02460B4620462946FEF74DFE08B90BF1FF3BF3
:40458000BBF1160F0DD8DDE90223484901EBCB01D1E90001FEF766FE30B10BF1FF3B002300E00123109300E01090129B9E1B731E079343BFC3F10008002307934FF0000849
:4045C000BBF1000F06DB079BCDF82CB05B440793002705E00023CBEB0808CBF100070B931E9B092B28D8052BC4BF043B1E931E9BC8BF0025A3F10203D8BF0125032B20D8DC
:40460000DFE803F0060E0204012302E0012308E000230A931F9B002B1DDD9946059321E000230A931F9B0BEB030909F10103012B0593B8BF012315E0012500231E930A9516
:4046400001E001230A934FF0FF390022CDF8149012231F9206E04FF001094B46CDF81490CDF87C90DAF8244000226260042101F114029A421CD86268490001326260F6E7BA
:4046800061436F63A787D23FB3C8608B288AC63FFB799F501344D33F0000F07F845600008D560000835600000000F83FA05600006168504600F030FCDAF8243020601B6886
:4046C0000693059B0E2B00F25B81002D00F05881DDE90234BBF1000FCDE90E3430DD9F4A0BF00F034FEA2B1502EBC303E80618CBCDE908340CD5DDE90E01994B05F00F0540
:40470000D3E90823FEF748FC0324CDE9020100E00224934E6DB1E90708D5DDE90801D6E90023FEF70FFBCDE9080101346D100836F0E7DDE90823DDE90201FEF72DFC20E099
:40474000CBF1000505B3DDE90E01844B05F00F0203EBC203D3E90023FEF7F4FACDE902017F4E2D110023022455B1EA0705D5D6E90023FEF7E7FA013401236D100836F3E71D
:404780001BB1CDE9020100E00224109BE3B1DDE902560022734B28463146FEF745FD98B1059B8BB1B9F1000F40F3E6800BF1FF330893314600226C4B2846FEF7C3FA013430
:4047C000CDE902014E4602E0059ECDF820B02046FEF752FADDE90223FEF7B4FA634B0022FEF7FEF8A1F1507304460C931D46D6B9DDE9020100225E4BFEF7F0F822460C9BB2
:40480000CDE90201FEF72EFD002840F03F820C99224601F10043DDE90201FEF705FD002840F02B82A8E00A9A4C4B711E002A49D003EBC103D3E9002300204E49FEF7ACFB06
:4048400022462B46FEF7CAF8CDE90C01069CDDE9020100F0B5FE0546FEF70EFA02460B46DDE90201FEF7BAF8DDE90C23303504F8015BCDE90201FEF7D7FC002840F01D835B
:40488000DDE9022300203749FEF7A8F8DDE90C23FEF7CAFC002840F0D180069BE31AB3426ADADDE90C0100222F4BFEF74BFA0022CDE90C01DDE902012B4BFEF743FACDE9F3
:4048C0000201C4E703EBC1012246D1E900012B46FEF738FA069BCDE90C011D469C19DDE9020100F06DFE0646FEF7C6F902460B46DDE90201FEF772F8303605F8016BAC4281
:40490000CDE902014FF0000222D11A4BDDE90C01FEF766F802460B46DDE90201FEF7A2FC002840F08B80DDE90C2300201149FEF755F802460B46DDE90201FEF775FCD8B1A5
:4049400014F8013C621E302B40F0B7821446F7E7054BFEF7F7F9CDE90201C0E7A0560000785700000000F03F0000244000001C40000014400000E03FDDE90E34CDE90234C2
:40498000139B002B7CDBBBF10E0F79DCAB4B03EBCB03D3E900671F9B002B14DA059B002B11DC40F06C810022A54B30463946FEF7C9F9DDE90223FEF74BFC059D2E46002809
:4049C00040F05F8165E1069CDDE9028932463B4640464946FEF7E0FA00F0F2FD0546FEF74BF932463B46FEF7ADF90B46024649464046FDF7F3FF05F1300E069B04F801EB49
:404A0000C3EB040E059B73452DD102460B46FDF7E7FF8046894602460B4630463946FEF703FC78B942464B4630463946FEF7F2FB002800F04482EB0704D440E2DDF820B046
:404A400000E01C4614F8012C631E392A07D1069A9A42F6D1069930220BF1010B0A701A7801321A702BE20022764BFEF76BF90022002380468946FEF7CDFB0028A6D01EE27C
:404A80000A9A002A2BD01E9A012A0ADC119A12B103F2334302E0129BC3F136033D46444613E0059B5D1EAF42BFBF0B9BEA1B9B180B93059BB6BF2F467D1B0025002BA7BFB1
:404AC0004446059BC3EB08040023079A01211A4450469844079200F0F3FA064602E03D4644460A9E5CB1079B002B08DDA342A8BF2346079AC3EB0808E41AD31A0793002F3C
:404B00001DDD0A9BABB18DB131462A46504600F071FB049A01460646504600F0DAFA04990890504600F02DFA089B04937A1B06D000E03A460499504600F05CFB04900121C1
:404B4000504600F0BDFA0B9B05465BB31A460146504600F04FFB1E9B0546012B18DC029B83B9039BC3F3130373B9039B23F000473F0D3F054FB1079B08F1010801330793F5
:404B8000012702E0002700E0029F0B9B73B100E000272B6905EB8303186900F044FAC0F1200004E01E9B012BD9DD0B9F0120079B184410F01F0008D0C0F12003042B02DDC7
:404BC000C0F11C0002E006D018461C30079B8044034404440793B8F1000F05DD42460499504600F055FB0490079B002B05DD29461A46504600F04CFB0546109B23B3294648
:404C0000049800F096FB00281EDA00230A220499504600F0CDF90A9B0BF1FF3B0490002B00F05F81314600230A22504600F0C0F9B9F1000F06463FDC3BE000BFA0560000A0
:404C40000000144000002440059B002B2BDC1E9B022B28DDDDF81490B9F1000F11D129464B460522504600F0A3F901460546049800F05FFB00280CDC03E0354600E0002577
:404C80002E461F9B069C6FEA030B09E03546DDF820B0069B069A5C1C312313700BF1010B05960026F7E00A9BDDF8149023B9069CB2E01E9B022BCFDC002C05DD31462246D8
:404CC000504600F0E5FA06469FB17168504600F023F90446326906F10C01023292000C30FEF782FF01222146504600F0D1FA059000E00596029B069F03F0010307932946AA
:404D00000498FFF7D7FA3146044600F13008049800F00FFB059A02902946504600F025FBC36802463BB901460A90049800F001FB0A9A034600E00123114650460A9300F00F
:404D400020F90A9B53B91E9A42B9079A32B9B8F1390F2AD0029B002B1CDC1DE0029A002A04DB1BD11E9ACAB9079ABAB9002B13DD01220499504600F08BFA2946049000F0C9
:404D8000D8FA002803DC07D118F0010F04D0B8F1390F0AD004F131087C1C0CE0002B07F101040BDDB8F1390F03D139233B70013756E008F1010887F800806CE0069B274634
:404DC000E31A4B4504F8018C3BD000230A220499504600F0EDF8059B04909E424FF00A024FF000033146504604D100F0E1F80646059084E700F0DCF8002306460A220599A6
:404E0000504600F0D5F8059079E700230A220499504600F0CDF8049029460498FFF74AFA069B00F1300804F8018BE31A4B45ECDB069B0596B9F1010FACBF4B4401331F46EB
:404E4000002601220499504600F022FA2946049000F06FFA002803DC15D118F0010F12D03C4614F8013C621E392B09D1069B934204D10BF1010B3123069A02E01446F0E784
:404E80000133137007E03C4614F8013C621E302B01D11446F8E72946504600F072F8059B6BB12EB19E4203D03146504600F069F80599504600F065F801E0DDF820B00499F4
:404EC000504600F05EF80023209A23700BF101031360229B1BB11C6001E008480AE0069808E0B9F1000F3FF7E2AE1E9B022B7FF7DEAEB1E615B0BDE8F08F00BF82560000CF
:404F0000004870477C81FF1F024B0146186800F0E7BA00BF7881FF1F70B5456A04460E463DB91020FFF7F0FF6062456085600560C560656AEB6843B1636ADB6853F82600F2
:404F400078B1026843F8262017E021220421204600F0B8FA636AE860DB68002BECD1002070BD012101FA06F56A1D9200204600F0A9FA0028F3D04660856000230361C360DF
:404F800070BD70B5446A06460D463CB91020FFF7BBFF7062446084600460C4603DB1736A6A68DB6853F82210296043F8225070BD2DE9F04106460C460D691F4601F1140E07
:404FC0000023DEF80000013381B202FB0171000C0F0C02FB007089B201EB00419D424FEA10474EF8041BECDCD7B1A3689D4212DB616830460131FFF78FFF8046226904F1B0
:405000000C01023292000C30FEF7EEFD21463046FFF7B7FF444604EB850301355F6125612046BDE8F081030C1B0413B90004102300E0002310F07F4F04BF0002083310F0FD
:40504000704F04BF0001043310F0404F04BF80000233002803DB420003D5581C70471846704720207047036813F007020BD0D90722D49A074BBF5B089B08036003604CBF6E
:4050800001200220704799B209B91B0C102213F0FF0F04BF1B0A0832190704BF1B090432990704BF9B080232D90702D45B0805D00132036010467047002070472020704787
:4050C00010B50C460121FFF727FF01224461026110BD2DE9F74F14460A69236988469A42BEBF0B46A0461C46D8F81070D4F81090D8F80830D8F8041007EB09069E42C8BFDE
:405100000131FFF709FF00F114052B4605EB860C0022634502D243F8042BFAE704F1140208F1140102EB890301EB87070093009B0192934257D9B2F800B0BBF1000F23D07F
:405140008946AE464FF0000859F8044BBEF800A0A3B20BFB03A34FEA144ADEF8004043444FEA14480BFB0A84F24604EB13449BB243EA04434F454FEA14484AF8043B01D90E
:40518000D646E1E7CEF80480019B0432B3F802A0BAF1000F21D02C4689462B684FF00008B9F800E0B4F802B09BB20AFB0EBEA346F04443EA08434BF8043B59F8043BB4F87C
:4051C00004E01B0C0AFB03E34F4503EB18434FEA134801D95C46E3E763600435A7E75CF8043D13B9013E002EF9DC066103B0BDE8F08F00002DE9F843154612F00302064698
:405200000F4607D0214C013A002354F82220FFF7CFFE0746AD1036D0746A3CB91020FFF773FE7062446084600460C460D6F82480D8F808404CB940F271213046FFF740FFCC
:4052400004460023C8F8080003604FF00008EB070AD5394622463046FFF73BFF814639463046FFF78EFE4F466D100CD0206808B10446ECE7224621463046FFF72AFF206083
:40528000C0F80080F4E73846BDE8F883685700002DE9F0470C460746914626694FEA621A56444968A368751CAB4202DA01315B00FAE73846FFF730FE002380461A4600F17D
:4052C0001401534503DA41F823200133F9E72AEAEA73206901EB830319F01F0904F1140101EB800E14D0C9F1200C002208689A4600FA09F0024343F8042B51F8042B8E454A
:4053000022FA0CF2F2D8CAF8042042B1B51C06E0043B51F8042B8E4543F8042FF9D8013D3846C8F810502146FFF72BFE4046BDE8F08703690A6910B59B1A11D1920014301B
:40534000143183180A4453F8044D52F8041D8C4202D007D3012010BD9842F4D3002010BD184610BD4FF0FF3010BD2DE9F8430C460746114620461546FFF7DBFF061E08D1C7
:4053800031463846FFF7C8FD012303614661BDE8F883BCBF23462C4638466168BABF1D4601260026FFF7B8FD2B69C660266905F1140904F1140101EB860709EB830800F12E
:4053C00014054FF0000C51F8042B59F8044B93B29C44A3B2240CC3EB0C03C4EB124202EB23429BB24FEA224CC84543EA02428E4645F8042BE7D8BE450ED25EF8041B8AB270
:405400006244131403EB114392B242EA03424FEA234C45F8042BEEE755F8043D0BB9013EFAE70661BDE8F8832DE9F3411C4601219046089E099DFFF76FFDC4F31302C4F3F1
:405440000A5407460CB142F480120192B8F1000F19D002A840F8088DFFF705FE009B48B1019AC0F1200102FA01F10B43C2407B61019200E07B61019B002B14BF022101210F
:40548000BB61396107E001A8FFF7EDFD019B01217B613961203034B1A4F2334404443460C0F1350009E0A0F2324007EB810330601869FFF7B8FDC0EB41102860384602B0BB
:4054C000BDE8F08138B502FB01F4214600F008F8054618B122460021FEF791FB284638BD70B5CD1C25F0030508350C2D38BF0C25002D064601DBA94202D90C23336046E013
:4055000000F05CF8234B1C681A462146A1B10B685B1B0ED40B2B03D90B60CC18CD501EE08C420BBF63684B681360636018BF0C4615E00C464968E9E7174C23681BB9304660
:4055400000F02CF820602946304600F027F8431C18D0C41C24F00304A0420DD12560304600F02DF804F10B00231D20F00700C31A0ED05A42E25070BD211A304600F00EF8DD
:405580000130EBD10C233360304600F018F8002070BD00BFDC81FF1FD881FF1F38B5064C0023054608462360FBF724FB431C02D1236803B12B6038BDF481FF1F7047704747
:4055C0004FEA410212F5001215D211D56FF47873B3EB625212D94FEAC12343F0004343EA505311F0004F23FA02F018BF404270474FF00000704750EA013005D111F0004074
:4056000008BF6FF0004070474FF00000704700BF000000008CE2FF7F0100000000000000C84900401900205100405000C05100401000F051004010000000014000100014E9
:405640000140000800400140000A004C014000020050014020000000706F770000000000000000000000304300000000000030C34300494E4600696E66004E414E006E6151
:405680006E003000496E66696E697479004E614E00504F534958002E0000000000000000000000000000F03F000000000000244000000000000059400000000000408F4009
:4056C000000000000088C34000000000006AF8400000000080842E4100000000D01263410000000084D797410000000065CDCD41000000205FA00242000000E8764837428F
:40570000000000A2941A6D42000040E59C30A2420000901EC4BCD64200003426F56B0C430080E03779C3414300A0D8855734764300C84E676DC1AB43003D9160E458E14387
:40574000408CB5781DAF154450EFE2D6E41A4B4492D54D06CFF08044F64AE1C7022DB544B49DD9794378EA4405000000190000007D000000000000000080E03779C34143BC
:40578000176E05B5B5B89346F5F93FE9034F384D321D30F94877825A3CBF737FDD4F1575F8B500BFF8BC08BC9E4670474D000000DD0C0000F8B500BFF8BC08BC9E4670478D
:4057C00029000000D8570000C880FF1FF000000040000000000000000000000000760A03000002050000000000000000000000000000000000000000000000000000000031
:40580000003C1CC6003C1CC6F881FF1F008102080F00000000366E01C05D0000180000000000E02E0100000000000000000000000000000000000000000000000000000012
:405840000000000000000000705600000000000000000000000000000000000000000000000000000000000000000000000000000000000000000000000000000000000062
:4058800000000000000000001881FF1F97560000985600009856000098560000985600009856000098560000985600009856000098560000FFFFFFFFFFFFFFFFFFFFFFFFF2
:4058C000FFFF0000000000000000000000000000000000000000000000000000000000000000000000000000000000000000000000000000000000000000000000000000AA
:405900000000000000000000000000000000000000000000000000000000000000000000000000000000000000000000000000000000000000000000000000000000000067
:405940000000000000000000000000000000000000000000000000000000000000000000000000000000000000000000000000000000000000000000000000000000000027
:4059800000000000000000000000000000000000000000000000000000000000000000000000000000000000000000000000000000000000000000000000000000000000E7
:4059C00000000000000000000000000000000000000000000000000000000000000000000000000000000000000000000000000000000000000000000000000000000000A7
:020000040003F7
:0200000480007A
:40000000025200400103014003050140030B0140010D014001150140011B014008410140074201400143014001450140084601400447014001480140024901400B4C014063
:40004000014D01400151014001020403E601E601E880EC10E601E880EC10E601EA01EA010102040150045B408340C030D4A0E6803E1080049408B102B401CE20E6809610C6
:400080008080822098209C80A110B020B510E801EC0898209C80A110A6209610AA10EA8012201320148078207D2098209C80A110A620C40EDE03AB2003C0000003000000D5
:4000C0000300030000000000000B0B0000000000000000000000000000000000000000000000000000000000000000000000000000000000000000000000000000000000E4
:4001000000000000000000000000000000000000000000000000000000000000000000000000000000000000000000000000000000000000000000000000000000000000BF
:40014000000000000000000000000000000000000000000000000000000000000000000000000000000000000000000000000000000000000000000000000000000000007F
:40018000000000000000000000000000000000000000000000000000000000000000000000000000000000000000000000000000000000000000000000000000000000003F
:4001C00000000000000000000000000000000000000000000000000000000000000000000000000000000000000000000000000000000000000000000000000000000000FF
:0200000490006A
:0400000000004005B7
:0200000490105A
:04000000BC90ACAF55
:0200000490303A
:02000000FEB64A
:0200000490402A
:4000000000000000000000000000000000000000000000000000000000000000000000000000000000000000000000000000000000000000000000000000000000000000C0
:400040000000000000000000000000000000000000000000000000000000000000000000000000000000000000000000000000000000000000000000000000000000000080
:400080000000000000000000000000000000000000000000000000000000000000000000000000000000000000000000000000000000000000000000000000000000000040
:4000C0000000000000000000000000000000000000000000000000000000000000000000000000000000000000000000000000000000000000000000000000000000000000
:0200000490501A
:0C00000000012E16106900012E3A0F1F9F
:00000001FF